:100000000C9434000C943E000C9463000C943E005D
:100010000C943E000C943E000C943E000C943E0068
:100020000C943E000C943E000C943E000C943E0058
:100030000C943E000C943E000C943E000C943E0048
:100040000C943E000C943E000C943E000C943E0038
:100050000C943E000C943E000C943E000C943E0028
:100060000C943E000C943E0011241FBECFEFD8E04C
:10007000DEBFCDBF0E9499000C94FA010C940000E1
:1000800080E480937C0087E880937A000895ECE711
:10009000F0E09081987F8770892B8083EAE7F0E019
:1000A000808180648083808186FDFDCF809178008F
:1000B00090917900089588E08AB98BB992E09DBB50
:1000C0008093690008951F920F920FB60F9211242A
:1000D0008F939F93AF93BF93EF93FF9384EF91E040
:1000E000E8E8F0E091838083AFE5BAEE1197F1F78D
:1000F00000C000000197893F9105A1F784EF91E0CE
:10010000EAE8F0E091838083AFE5BAEE1197F1F76A
:1001100000C000000197893F9105A1F7FF91EF9181
:10012000BF91AF919F918F910F900FBE0F901F9035
:1001300018950E945B0078940E94B6000E944000CF
:10014000C8E8D0E080E090E00E944700BC0180E079
:1001500090E00E94FF002EE432E64CE950E40E9459
:1001600065010E94C90079836883ECCF86E084B979
:1001700082E8809380008BE180938100109285005B
:100180001092840087E893E1909387008093860023
:1001900008950E94D0006894B1110C945F010895F5
:1001A0000E94440188F09F5798F0B92F9927B751C2
:1001B000B0F0E1F0660F771F881F991F1AF0BA950B
:1001C000C9F714C0B13091F00E945E01B1E008950A
:1001D0000C945E01672F782F8827B85F39F0B93FFC
:1001E000CCF3869577956795B395D9F73EF49095BE
:1001F0008095709561957F4F8F4F9F4F0895E8943C
:1002000009C097FB3EF490958095709561957F4F5E
:100210008F4F9F4F9923A9F0F92F96E9BB2793950C
:10022000F695879577956795B795F111F8CFFAF41C
:10023000BB0F11F460FF1BC06F5F7F4F8F4F9F4F4D
:1002400016C0882311F096E911C0772321F09EE8AB
:10025000872F762F05C0662371F096E8862F70E011
:1002600060E02AF09A95660F771F881FDAF7880FEB
:100270009695879597F9089557FD9058440F551F07
:1002800059F05F3F71F04795880F97FB991F61F018
:100290009F3F79F087950895121613061406551F8F
:1002A000F2CF4695F1DF08C0161617061806991FFB
:1002B000F1CF86957105610508940895E894BB27F0
:1002C00066277727CB0197F908950E9478010C944F
:1002D000E9010E94DB0138F00E94E20120F0952341
:1002E00011F00C94D2010C94D80111240C945F01EC
:1002F0000E943C0170F3959FC1F3950F50E0551F8C
:10030000629FF001729FBB27F00DB11D639FAA276A
:10031000F00DB11DAA1F649F6627B00DA11D661FB9
:10032000829F2227B00DA11D621F739FB00DA11DDA
:10033000621F839FA00D611D221F749F3327A00D94
:10034000611D231F849F600D211D822F762F6A2F30
:1003500011249F5750409AF0F1F088234AF0EE0F95
:10036000FF1FBB1F661F771F881F91505040A9F7C2
:100370009E3F510580F00C94D2010C945F015F3FC9
:10038000E4F3983ED4F3869577956795B795F795FE
:10039000E7959F5FC1F7FE2B880F911D9695879576
:1003A00097F9089597F99F6780E870E060E00895F5
:1003B0009FEF80EC089500240A941616170618067D
:1003C0000906089500240A94121613061406050659
:1003D0000895092E0394000C11F4882352F0BB0FEA
:1003E00040F4BF2B11F460FF04C06F5F7F4F8F4F4D
:0803F0009F4F0895F894FFCF20
:00000001FF
