S01400006C63645F776974685F6932632E7372656365
S11300000C9434000C9449000C9449000C9449005D
S11300100C9449000C9449000C9449000C94490038
S11300200C9449000C9449000C9449000C94490028
S11300300C9449000C9449000C9449000C94490018
S11300400C9449000C9449000C9449000C94490008
S11300500C9449000C9449000C9449000C944900F8
S11300600C9449000C94490011241FBECFEFD8E032
S1130070DEBFCDBF11E0A0E0B1E0E6E4F3E002C0F2
S113008005900D92AC30B107D9F70E9489010C9408
S1130090A1010C94000082E68093B80084E0809370
S11300A0BC001092B900089584EA8093BC00ECEB84
S11300B0F0E080818823ECF708958093BB0084E806
S11300C08093BC00ECEBF0E080818823ECF708958A
S11300D0992354F4089521503109E9F74F5F5F4F94
S11300E0841795071CF4089540E050E029E730E0B8
S11300F0F2CFEBEBF0E080818260808384E8809330
S1130100BC00ECEBF0E080818823ECF781E090E028
S11301100E946800EBEBF0E080818D7F808384E8AF
S11301208093BC00ECEBF0E080818823ECF7089529
S1130130EBEBF0E090819E7F908394E89093BC0079
S1130140ECEBF0E090819923ECF7EBEBF0E090819D
S11301509F70908394E89093BC00ECEBF0E0908166
S11301609923ECF7EBEBF0E09081807F892B80837F
S113017084E88093BC00ECEBF0E080818823ECF70A
S11301800E9479000895CF93C82FEBEBF0E08081B3
S11301908E7F808384E88093BC00ECEBF0E0808168
S11301A08823ECF7EBEBF0E080818F70808384E8A8
S11301B08093BC00ECEBF0E080818823ECF7EBEB60
S11301C0F0E080819C2F907F892B808384E880934A
S11301D0BC00ECEBF0E080818823ECF70E9479000E
S11301E0EBEBF0E080818F70808384E88093BC0027
S11301F0ECEBF0E080818823ECF7EBEBF0E020817E
S113020030E1C39FC0011124822B808384E8809352
S1130210BC00ECEBF0E080818823ECF70E947900CD
S1130220CF91089580E30E94980080E30E94980093
S113023080E20E94980088E20E94C3008CE00E9441
S1130240C30081E00E94C30086E00E94C30080E8EE
S11302500E94C3000895CF93C82FEBEBF0E0808198
S11302608160808384E88093BC00ECEBF0E08081C3
S11302708823ECF7EBEBF0E080818F70808384E8D7
S11302808093BC00ECEBF0E080818823ECF7EBEB8F
S1130290F0E080819C2F907F892B808384E8809379
S11302A0BC00ECEBF0E080818823ECF70E9479003D
S11302B0EBEBF0E080818F70808384E88093BC0056
S11302C0ECEBF0E080818823ECF7EBEBF0E02081AD
S11302D030E1C39FC0011124822B808384E8809382
S11302E0BC00ECEBF0E080818823ECF70E947900FD
S11302F0CF910895CF93DF93EC018881882331F067
S113030021960E942B0189918111FBCFDF91CF911E
S113031008950E944B000E94540080E70E945D00F3
S11303200E94120180E80E94C30080E091E00E94D4
S11303307A0183EC0E94C30087E091E00E947A0175
S1090340F1CFF894FFCF99
S10F034665786F64757300693263000011
S9030000FC
