:100000000C942A000C9434000C9434000C943400AA
:100010000C9434000C9434000C9434000C94340090
:100020000C9434000C9434000C9434000C94340080
:100030000C9434000C9434000C9434000C94340070
:100040000C9434000C9434000C9434000C94340060
:100050000C94340011241FBECFE5D4E0DEBFCDBF29
:100060000E9436000C944F000C9400008D9A1DBC29
:100070001CBC83EC99E097BD86BD82E88FBD8BE107
:100080008EBD81E490E09BBD8ABD2FEF3EE944E246
:10009000215030404040E1F700C00000F4CFF89418
:0200A000FFCF90
:00000001FF
