:100000000C9434000C943E000C9448000C943E0078
:100010000C943E000C943E000C943E000C943E0068
:100020000C943E000C943E000C943E000C943E0058
:100030000C943E000C943E000C943E000C943E0048
:100040000C943E000C943E000C943E000C943E0038
:100050000C943E000C943E000C943E000C943E0028
:100060000C943E000C943E0011241FBECFEFD8E04C
:10007000DEBFCDBF0E949A000C94AD000C9400002E
:1000800088E08AB98BB992E09DBB8093690008959E
:100090001F920F920FB60F9211248F939F93AF93DD
:1000A000BF93EF93FF9384EF91E0E8E8F0E0918352
:1000B0008083AFE5BAEE1197F1F700C00000019719
:1000C000893F9105A1F784EF91E0EAE8F0E09183A0
:1000D0008083AFE5BAEE1197F1F700C000000197F9
:1000E000893F9105A1F7FF91EF91BF91AF919F914A
:1000F0008F910F900FBE0F901F90189587B117B872
:1001000080E480937C008FE880937A00089586E0F5
:1001100084B982E8809380008BE180938100109203
:1001200085001092840087E893E190938700809384
:10013000860008950E94400078940E9487000E94E3
:100140007E00A8E8B0E084EF91E0EAE8F0E01196E4
:0E0150009C938E9391838083FACFF894FFCF17
:00000001FF
