:100000000C9434000C943E000C943E000C943E0082
:100010000C943E000C943E000C943E000C943E0068
:100020000C943E000C943E000C943E000C943E0058
:100030000C943E000C943E000C943E000C943E0048
:100040000C943E000C943E000C943E000C943E0038
:100050000C943E000C943E000C943E000C943E0028
:100060000C943E000C943E0011241FBECFEFD8E04C
:10007000DEBFCDBF0E945F000C946A000C940000AC
:1000800084EA8093BC00ECEBF0E080818823ECF7FD
:1000900008958093BB0084E88093BC00ECEBF0E013
:1000A00080818823ECF7089584E88093BC00ECEB12
:1000B000F0E080818823ECF78091BB0008958FEFFA
:1000C00084B90E94400081E40E9449000E945400CB
:0800D00085B9F7CFF894FFCFCA
:00000001FF
