S02B00006175746D61746564205F7461702061646370776D2074617020333238702070726F6A6563742E737263
S11300000C9434000C943E000C943E000C943E007E
S11300100C943E000C943E000C943E000C943E0064
S11300200C943E000C943E000C943E000C943E0054
S11300300C943E000C943E000C943E000C943E0044
S11300400C943E000C943E000C943E000C943E0034
S11300500C943E000C943E000C943E000C943E0024
S11300600C943E000C943E0011241FBECFEFD8E048
S1130070DEBFCDBF0E946D000C94C4010C9400003F
S113008087B117B880E480937C008FE880937A006E
S11300900895ECE7F0E0208130812F70822B832BD0
S11300A08083EAE7F0E0808180648083808184FD3E
S11300B0FDCF8091780090917900089582E084B911
S11300C082E88093800089E18093810080E29EE44D
S11300D09093870080938600089583E08AB90E94F4
S11300E05E000E944000C8E8D0E080E090E00E94FA
S11300F04900BC01990F880B990B0E94CB0020E0AA
S113010030E040E650E40E942F010E94930079837E
S113011068832FEF86E791E0215080409040E1F71B
S113012000C00000E2CF0E949A006894B1110C94C0
S1130130290108950E940E0188F09F5798F0B92F65
S11301409927B751B0F0E1F0660F771F881F991F08
S11301501AF0BA95C9F714C0B13091F00E94280181
S1130160B1E008950C942801672F782F8827B85F91
S113017039F0B93FCCF3869577956795B395D9F760
S11301803EF490958095709561957F4F8F4F9F4F6A
S11301900895E89409C097FB3EF490958095709576
S11301A061957F4F8F4F9F4F9923A9F0F92F96E9BF
S11301B0BB279395F695879577956795B795F11134
S11301C0F8CFFAF4BB0F11F460FF1BC06F5F7F4FD1
S11301D08F4F9F4F16C0882311F096E911C07723E3
S11301E021F09EE8872F762F05C0662371F096E8EC
S11301F0862F70E060E02AF09A95660F771F881FBB
S1130200DAF7880F9695879597F9089557FD9058D2
S1130210440F551F59F05F3F71F04795880F97FBC6
S1130220991F61F09F3F79F0879508951216130680
S11302301406551FF2CF4695F1DF08C016161706AF
S11302401806991FF1CF86957105610508940895E4
S1130250E894BB2766277727CB0197F908950E9476
S113026042010C94B3010E94A50138F00E94AC0134
S113027020F0952311F00C949C010C94A2011124FC
S11302800C9429010E94060170F3959FC1F3950F08
S113029050E0551F629FF001729FBB27F00DB11D06
S11302A0639FAA27F00DB11DAA1F649F6627B00D96
S11302B0A11D661F829F2227B00DA11D621F739F7F
S11302C0B00DA11D621F839FA00D611D221F749F8D
S11302D03327A00D611D231F849F600D211D822FD4
S11302E0762F6A2F11249F5750409AF0F1F08823FB
S11302F04AF0EE0FFF1FBB1F661F771F881F915028
S11303005040A9F79E3F510580F00C949C010C9439
S113031029015F3FE4F3983ED4F38695779567957A
S1130320B795F795E7959F5FC1F7FE2B880F911D51
S11303309695879597F9089597F99F6780E870E0F7
S113034060E008959FEF80EC089500240A94161647
S1130350170618060906089500240A9412161306AF
S1130360140605060895092E0394000C11F488233D
S113037052F0BB0F40F4BF2B11F460FF04C06F5F59
S10F03807F4F8F4F9F4F0895F894FFCFDC
S9030000FC
