:100000000C9434000C943E000C943E000C943E0082
:100010000C943E000C943E000C943E000C943E0068
:100020000C943E000C943E000C943E000C943E0058
:100030000C943E000C943E000C943E000C943E0048
:100040000C943E000C943E000C943E000C943E0038
:100050000C943E000C943E000C943E000C943E0028
:100060000C943E000C943E0011241FBECFEFD8E04C
:10007000DEBFCDBF0E944B000C9459000C940000D1
:1000800014BC95E095BD86BDA89BFECF14BC15BCE5
:1000900081E085BB089580E284B9C0E2C5B983E8F8
:1000A00090E00E94400015B883E890E00E94400074
:0600B000F5CFF894FFCF2C
:00000001FF
