S0150000736572766F20636F6E74726F6C2E73726563BF
S11300000C9434000C943E000C943E000C943E007E
S11300100C943E000C943E000C943E000C943E0064
S11300200C943E000C943E000C943E000C943E0054
S11300300C943E000C943E000C943E000C943E0044
S11300400C943E000C943E000C943E000C943E0034
S11300500C943E000C943E000C943E000C943E0024
S11300600C943E000C943E0011241FBECFEFD8E048
S1130070DEBFCDBF0E9440000C945C000C940000D5
S113008080E284B98FE787B920E29FED25B93FEF7D
S11300904BE752E9315040405040E1F700C00000C6
S11300A095B93FEF4BE752E9315040405040E1F7FA
S10F00B000C0000088B9EACFF894FFCF2C
S9030000FC
