S014000050425F5247425F50524F4A312E7372656379
S11300000C9434000C9476000C94B5000C945100BC
S11300100C9451000C9451000C9451000C94510018
S11300200C9451000C9451000C9451000C94510008
S11300300C9451000C9451000C9451000C945100F8
S11300400C9451000C9451000C9451000C945100E8
S11300500C9451000C9451000C9451000C945100D8
S11300600C9451000C94510011241FBECFEFD8E022
S1130070DEBFCDBF11E0A0E0B1E0E4E1F2E002C0F8
S113008005900D92A630B107D9F721E0A6E0B1E0C2
S113009001C01D92A730B207E1F70E94F4000C944E
S11300A008010C940000823039F4529A81E08DBB2F
S11300B0609369005A9A18C0833039F4539A82E0E5
S11300C08DBB609369005B9A0FC090910601891300
S11300D00BC08AB18C608AB98DB383608DBB609389
S11300E069008BB18C608BB9789408951F920F923C
S11300F00FB60F9211242F933F934F938F939F9397
S1130100EF93FF9380E090E0FC01EE0FFF1FE050BF
S1130110FF4F208125B98330910579F02FEF37EA1D
S113012041E6215030404040E1F700C00000019614
S1130130833091054CF315B80CC08FEF97EA21E694
S1130140815090402040E1F700C0000081E090E041
S1130150DBCFFF91EF919F918F914F913F912F9121
S11301600F900FBE0F901F9018951F920F920FB60D
S11301700F9211242F933F934F938F939F93EF9359
S1130180FF9380E090E0FC01EE0FFF1FE050FF4F73
S1130190208125B98330910579F02FEF37EA41E6C4
S11301A0215030404040E1F700C000000196833008
S11301B091054CF315B80CC08FEF97EA21E68150F6
S11301C090402040E1F700C0000081E090E0DBCFE8
S11301D0FF91EF919F918F914F913F912F910F90AC
S11301E00FBE0F901F9018958FEF87B984B96EEFEB
S11301F083E00E94530088B1809588B92FEF83ED86
S113020090E3215080409040E1F700C00000F3CF1C
S1070210F894FFCF8C
S1090214010002000400D9
S9030000FC
